:020000040800F2
:10000000A8070020CD010008D5210008CD21000857
:10001000D1210008C5050008712700080000000074
:10002000000000000000000000000000DD210008CA
:10003000C905000800000000D92100086926000851
:10004000E7010008E7010008E7010008E7010008F0
:10005000E7010008E7010008E7010008E7010008E0
:10006000E7010008E701000875060008E70100083D
:10007000E7010008E7010008E7010008E7010008C0
:10008000E7010008E7010008E701000800000000A0
:100090000000000000000000000000007D060008D5
:1000A000E7010008E7010008E7010008E701000890
:1000B000712600087D260008E7010008E701000816
:1000C000E7010008E7010008E7010008E701000870
:1000D000E7010008E7010008E7010008E701000860
:1000E00055060008E7010008E701000800000000CD
:1000F0000000000000000000000000000000000000
:1001000000000000000000000000000000000000EF
:100110000000000000000000E7010008E7010008FF
:1001200000F002F800F042F80AA090E8000C8244C7
:100130008344AAF10107DA4501D100F037F8AFF2A4
:10014000090EBAE80F0013F0010F18BFFB1A43F0B5
:1001500001031847903D0000B03D0000103A24BF55
:1001600078C878C1FAD8520724BF30C830C144BF1C
:1001700004680C607047000000230024002500265E
:10018000103A28BF78C1FBD8520728BF30C148BFFA
:100190000B607047642900F08180782900F0BA80F4
:1001A000002070471FB51FBD10B510BD00F0CFF97E
:1001B0001146FFF7F7FF02F011FE00F0EDF903B46E
:1001C000FFF7F2FF03BC00F0F5F900000948804793
:1001D00009480047FEE7FEE7FEE7FEE7FEE7FEE729
:1001E000FEE7FEE7FEE7FEE704480549054A064B41
:1001F000704700006D26000821010008A8010020BA
:10020000A8070020A8030020A80300200FB41CB5F5
:10021000074B06AA7B4469460090059800F07FF9D9
:100220000020694600F08EF91CBC5DF814FB00004C
:100230002D0300002DE9F0410E4604460020206207
:100240002046E168884730B3252805D0D4E901214C
:100250009047206A401CF2E7E16820460027884763
:10026000050018D0A5F14100192802D820354FF417
:1002700000673246294620462760FFF78BFF40B1D2
:10028000012804D0F61D26F007060836D8E7361DEB
:10029000D6E72846DAE7206ABDE8F0812DE9F0418B
:1002A0000646002410687529314616A510D0AFF314
:1002B0000080002802DA404213A507E031688A076F
:1002C00001D512A502E0490704D511A5012401E0DA
:1002D000AFF3008000210A2206F1240709E0B0FBF9
:1002E000F2FCB0FBF2F302FB1C00303078541846ED
:1002F000491C0028F3D123462A463046BDE8F04188
:1003000000F0AFB8000000002D0000002B0000003E
:100310002000000070B504460D4621461068AFF37A
:1003200000802188090502D50F4A7A4402E00E4A6E
:100330007A440E32002104F1240305E000F00F0698
:100340000009965D5E54491C0028F7D120780023EF
:10035000000704D5702D02D009B1022311322046C6
:10036000BDE8704000F07DB8C638000010B5431CF1
:1003700002E010F8011B71B18107FAD14FF0013290
:1003800002C88C1A8C4314EAC211F9D0C01A0A06AA
:1003900003D0C01E10BDC01A10BD0A0401D0801EBB
:1003A00010BD0902FCD0401E10BD10B5203AC0F0AF
:1003B0000B80B1E81850A0E81850B1E81850A0E838
:1003C0001850203ABFF4F5AF5FEA027C24BFB1E8D1
:1003D0001850A0E8185044BF18C918C0BDE8104014
:1003E0005FEA827C24BF51F8043B40F8043B08BF1D
:1003F0007047D20728BF31F8023B48BF11F8012BE4
:1004000028BF20F8023B48BF00F8012B70474FF08F
:10041000000200B5134694469646203922BFA0E854
:100420000C50A0E80C50B1F12001BFF4F7AF090760
:1004300028BFA0E80C5048BF0CC05DF804EB890051
:1004400028BF40F8042B08BF704748BF20F8022B94
:1004500011F0804F18BF00F8012B704770477047AC
:1004600070472DE9F0470D4699469246044600F143
:1004700024080168880604D5E06921F01001216094
:1004800000E00120A84201DD471B00E00027A16930
:100490007A1902EB0900081AA0612078C00602D47C
:1004A0002046AFF30080002608E0D4E901211AF8C5
:1004B00006009047206A401C761C20624E45F4DB03
:1004C0002078C0060AD52046AFF3008006E0D4E9C4
:1004D000012130209047206A401C2062381EA7F17D
:1004E0000107F4DC07E0D4E9012118F80500904782
:1004F000206A401C2062281EA5F10105F3DC20467D
:10050000AFF300802078000602D50220BDE8F08716
:100510000120FBE701694A1C02610878704700B5B9
:100520008FB0CDE901310021059105497944CDE92C
:10053000031011466846FFF77DFE0FB000BD0000B6
:10054000E5FFFFFF0A6802F8010B0A607047754675
:1005500000F02CF8AE4605006946534620F007002F
:10056000854618B020B5FFF73FFEBDE820404FF0AC
:1005700000064FF000074FF000084FF0000BAC46AC
:10058000ACE8C009ACE8C009ACE8C009ACE8C009F7
:1005900021F007018D46704710B50446AFF3008087
:1005A0002046BDE81040FFF70ABE00000048704733
:1005B0001000002001491820ABBEFEE72600020013
:1005C00070470000FEE70000704700002DE9F0438F
:1005D00083B04EF21006CEF200063168804600F07D
:1005E00063FC7168B2684C1CA11A01913168C9039F
:1005F00002D4814606E000BF00F056FCB168814697
:10060000601A019001984FF47A777843B0FBF4F4C4
:100610000BE000BF0299A0EB09007943B1FBF5F1B3
:10062000091B00FB0710404510D2306800F03CFC6D
:100630007168B2684D1CA91A02913168C903E9D5E5
:1006400000F032FCB168691A0291E3E703B0BDE83B
:10065000F083000080B54FF4006000F0FFFA4FF423
:10066000805000F0FBFA4FF40040BDE8804000F0FD
:10067000F5BA0000102000F0F1BA0000202000F0D0
:10068000EDBA000010B582B040F2A014C2F200042E
:100690002078012802D101F033FF2078022808BF1A
:1006A00001F0AAFE41F21C00C4F20200016847F208
:1006B000000441F0805101600168C4F2000401F0BF
:1006C0008051009100996168890703D5216841F044
:1006D0000C012160016841F080510160006800F068
:1006E0008050019001984FF4807000F08BFC2068DE
:1006F00040F0040020604FF4807000F08FFC02B0E6
:10070000BDE8104000F096BC70B542F20C060446FD
:10071000C4F2020600F0C8FB3168C90718D130687E
:10072000800644BF202030603068C00607D430699E
:10073000C00704D1306840075CBF002070BD30683E
:10074000C00623D40020316849072BD434E000BF11
:10075000002C47D00546601C0ED13068C007DED0A3
:100760003068C0071CBF30685FEAC070D7D03068FF
:10077000C007F2D1D3E700BF00F096FB401BA042B8
:1007800030D83068C007F7D1C9E700BF40F2801009
:10079000C2F20000C16941F00201C161102031685C
:1007A000490709D540F28011C2F20001CA6940F040
:1007B000040042F00102CA613169C90702D1306008
:1007C000012070BD40F28011C2F20001CA6942F0FE
:1007D0000402CA61316921F00101316130600120F8
:1007E00070BD00BF032070BD70B582B014460D46C9
:1007F000064600F019F940F2DC00C2F200000021C8
:100800000160012101EB1421C0E9026101A900F09E
:100810002DF818B100F0A2F802B070BD6CB100BFA5
:100820002A6802203146002300F0A8F80028F1D100
:100830000436013C05F10405F2D100F095F80020E2
:1008400002B070BDB0B5044600F02EFB054640F284
:100850000000C2F200000078611C18BF044400BF11
:1008600000F022FB401BA042FAD3B0BD2DE9F043BB
:1008700081B040F28016C2F20006327E012A03D116
:10088000022001B0BDE8F083054601202C683076D7
:100890004CF250308846FFF737FF022C1CD100285D
:1008A0004ED1002042F21004F061C4F2020420682C
:1008B00040F004002060206840F0400020604CF2CE
:1008C0005030FFF721FF216821F004012160002151
:1008D000317601B0BDE8F08390BB4FF0FF30C8F82F
:1008E0000000D5E9027007EB8020874228D242F24F
:1008F0001004C4F202044FF0000900BFC6F81C90B7
:10090000206840F0020020606760206840F04000EE
:1009100020604CF25030FFF7F7FE216821F0020111
:10092000216098B9D5E9020107F5806700EB8120C5
:100930008742E3D300200021317601B0BDE8F08387
:1009400001200021317601B0BDE8F083C8F80070C5
:100950000021317601B0BDE8F083000040F2801044
:10096000C2F20000C069704742F21001C4F20201F5
:10097000086840F0800200200A6070472DE9F04FBF
:1009800081B040F28019C2F20009924699F818200D
:10099000012A03D1022001B0BDE8F08F804601207A
:1009A00089F818004CF250309B460E46FFF7ACFE1B
:1009B000A0BB404642F21007B8F1020F18BF042056
:1009C000C4F20207B8F1010F08BF404645424FF09C
:1009D00000080024C4F12001C9F81C802AFA04F0A0
:1009E0000BFA01F13A680843B4F1200158BF2BFA21
:1009F00001F042F00101396026F8020B4CF2503050
:100A0000FFF782FE3968013521F0010248F100014B
:100A10003A6018B9002904F11004DBD0002189F8EC
:100A2000181001B0BDE8F08F42F20400C4F20200D9
:100A3000C16809065CBF0020704740F22311C4F270
:100A40006751016048F6AB11CCF6EF510160C06808
:100A5000C0B2C00970470000F0B58FB040F2710716
:100A6000C2F200073978E9B140F2A010C2F20000EA
:100A70003A78037843F6A9610DF10104C0F600014C
:100A80002046FFF7C3FB2046FFF770FC82B240F21E
:100A90007400C2F2000021464FF0FF3301F030F93C
:100AA0000FB0F0BDB0F5006F18DBB0F5006F57D098
:100AB000B0F5004F62D0B0F5805F7BD10220387076
:100AC00040F2740043F68A51C2F20000C0F6000101
:100AD0001F224FF0FF3301F013F9C5E710285BD058
:100AE000202867D140F60040C4F20100202100F028
:100AF000CFF901F0A3FE0028B6D101F043FF40F288
:100B00007405C2F20005044635A1284615224FF0AF
:100B1000FF3301F0F5F80DF1010637A1304622460A
:100B2000FFF774FB3046FFF721FC82B228463146BE
:100B30004FF0FF3301F0E4F840F2FD20C0F2FF0077
:100B4000844291D140F27400C2F200002EA10E2224
:100B50004FF0FF3301F0D4F80420387084E700BF71
:100B60000120387040F27400C2F200002AA11F2256
:100B70004FF0FF3301F0C4F876E700BF0320387070
:100B800040F27400C2F200002BA11F224FF0FF338D
:100B900001F0B6F868E700BF40F27400C2F200004E
:100BA0000AA111224FF0FF3301F0AAF80420387097
:100BB0005AE700BF40F27400C2F2000026A10322EF
:100BC0004FF0FF3301F09CF84EE700BF627574747C
:100BD0006F6E2D20706F7765726F66660000000083
:100BE0002D2D2D2D2D2D2D2D2D2D2D2D2D2D2D2D35
:100BF0002D2D2D2D2D0000000A20646174615F6988
:100C000072203D20257800006765745F72657375FA
:100C10006C745F6972000000696E74657272757041
:100C2000742D7265636F72645F7072657373203DBB
:100C30002031202020202000696E7465727275704A
:100C4000742D706C61795F7072657373203D203113
:100C500020202020202020006972300040F2144122
:100C6000C4F201010A68024214BF08607047FFF72E
:100C7000F3BE00002DE9F04F82B00E68002E00F0A8
:100C8000038140F20C4C41F200424FF6FF7EC4F269
:100C9000010CC4F20102042700240123C1F2100E4A
:100CA0004FF0000A4FF00009904208BF0327009759
:100CB00045E000BF012704F00C030F229A402BEA05
:100CC000020207FA03F34FEA9A051A4346F8252071
:100CD000D1F804B040F20045C4F201055FEACB321E
:100CE0002A6854BF22EA080242EA08022A606A68B7
:100CF0005FEA8B3354BF22EA080242EA08026A60C4
:100D00005FEACB23AA6854BF22EA080242EA08023B
:100D10005FEA8B23AA60DCF800204FF0010354BF88
:100D200022EA080242EA0802CCF800200E680AF122
:100D3000010A36FA0AF204F1040400F0A58003FA6D
:100D40000AF816EA080FF1D04E68764512DC122E2A
:100D500056D8DFE806F0350B4549555555555555DC
:100D6000555555555555554D510000BFD1F80C906E
:100D700046E000BF4FF6FF72C1F2210296420FDC3F
:100D80000022C1F2110296421AD00022C1F21202D0
:100D9000964215D00022C1F22102964210D02FE0D7
:100DA0000022C1F2220296420AD00022C1F2310290
:100DB000964205D00022C1F23202964220D100BFF5
:100DC0008A684AB1012A14BFC0F81480C0F81080A4
:100DD0004FF0080914E000BF4FF0040910E000BF15
:100DE000CA6802F108090BE04FF0000908E000BFF3
:100DF000CA6802F1040903E0CA6802F10C0900BFE5
:100E000022460646BAF1080F24BF203A0436376856
:100E10000F25954027EA050509FA02F22A433260B8
:100E2000CA79D2067FF582AF41F21803C4F20203F9
:100E30001A6842F001021A601A6802F00102019277
:100E4000019A40F20042C4F20102A2F57E762AF035
:100E5000030256F802B040F60002C4F201029042CA
:100E600010D040F60042C4F2010290423FF422AF9B
:100E700041F20002C4F20102009F904208BF022723
:100E800019E700BF002716E702B0BDE8F08F0000A9
:100E90008068084018BF012070470000002A08BF82
:100EA000090401617047000040F2A410C2F2000082
:100EB0000068704740F2000040F2A411C2F2000046
:100EC000C2F2000100780A68104408607047000010
:100ED00080B5032000F086F80F2000F005F800F040
:100EE00027F8002080BD000070B540F20006C2F275
:100EF000000640F208013278C2F200014FF47A7322
:100F00000968B3FBF2F20446B1FBF2F1084600F0C7
:100F100043FB0F2C4FF0010508D838B94FF0FF30D4
:100F200021460022002500F031F87460284670BD8B
:100F300082B041F21800C4F20200016841F00101E0
:100F40000160016801F0010101910199416841F0DE
:100F500080514160406800F080500090009802B0DD
:100F600070470000002848BF7047C1B200F01F0062
:100F7000012202FA00F04EF20012CEF2000242EA22
:100F8000D10121F0030108607047000010B54EF652
:100F90000C5CCEF2000CDCF80030C3F3022E8EF0B5
:100FA0000704042C28BF0424BEF103034FF0FF3EC6
:100FB0000EFA04F438BF0023A14399400EFA03F35C
:100FC0009A43114300F00F0200F160430901043A13
:100FD00003F564436244002848BF02F10C03197012
:100FE00010BD00004EF60C51CEF200010A684FF61B
:100FF000FF031A4060F30A2242F0806040F0FD7067
:101000000860704790FAA0F08021B0FA80F0C4F236
:101010000E21002241F820207047000090FAA0F035
:101020008021B0FA80F0C4F20E21012241F8202084
:101030007047000047F20000C4F20000016841F070
:10104000020101604EF61050CEF20000016841F03E
:101050000401016030BF7047F0B581B020B3044691
:10106000006841F204068107C4F2020611D5410767
:1010700003D5316841F4E0613160010703D531687F
:1010800041F4605131603168A26821F0F0011143F0
:101090003160C10731D06068022809D0012825D10C
:1010A00056F8041C890307D4012001B0F0BD00BF2D
:1010B00056F8041C8901F7D5316821F00301084373
:1010C0003060FFF7F1FE054641F28837306861680D
:1010D00000F00C00B0EB810F0ED0FFF7E5FE401BD7
:1010E000B842F3D9032001B0F0BD00BF56F8041C8C
:1010F0008907D9D5E0E700BF2068410705D53168E9
:10110000E26821F4E06111433160000706D53068E0
:10111000216920F4605040EAC1003060326802F07A
:101120000C00082841F20020C0F27A0019D143F6E1
:101130005243C2F38341C0F60003595CD20305D485
:1011400040F60010C0F23D0048430AE0B26A43F6A0
:10115000624302F00F02C0F600039A5C4843B0FB02
:10116000F2F0316843F63A42C1F30311C0F60002CF
:10117000515C40F2080220FA01F140F20400C2F290
:1011800000000068C2F200021160FFF7ADFE00200F
:1011900001B0F0BD40F2080041F20401C2F20000CB
:1011A000C4F202010068096843F64A42C1F3022111
:1011B000C0F60002515CC8407047000040F20800D1
:1011C00041F20401C2F20000C4F2020100680968A1
:1011D00043F64A42C1F3C221C0F60002515CC84046
:1011E000704700002DE9F04182B0002868D0044625
:1011F000007841F20006C007C4F2020625D07068EC
:1012000000F00C0004281BD0706800F00C000828C7
:1012100002D17068C00313D46068002800F06881B0
:10122000B0F5A02F00F07C81B0F5803F00F07C810C
:10123000306820F480303060306820F4802076E11F
:101240003068800301D56068D0B32078800718D556
:10125000706810F00C0F07D0706800F00C000828C0
:101260006ED17068C0036BD43068800702D52069E6
:10127000012825D13068616920F0F80040EAC100FA
:101280003060207800071FD42078400732D4E56909
:1012900095B1706800F00C00082840F08F80012D97
:1012A0000ED07068216A00F480328A4208D1616AE7
:1012B00000F47010884203D1002002B0BDE8F08134
:1012C000012002B0BDE8F081A069002862D00020B2
:1012D000C4F242200121C0F88014FFF7E5FD054665
:1012E000706A800700F18C80FFF7DEFD401B02284A
:1012F000F6D92AE1F06910F0805808D1F06940F081
:101300008050F061F06900F080500090009847F242
:101310000007C4F200073868C00529D4386840F4D3
:1013200080703860FFF7C0FD054600BF3868C00513
:101330001ED4FFF7B9FD401B6428F7D905E100BFB3
:101340002069002840F20000C4F2422000F08280B0
:1013500001210160FFF7A8FD054600BF3068800746
:101360003FF588AFFFF7A0FD401B0228F6D9ECE05F
:10137000E068002800F08080052800F097800128B0
:1013800000F09880306A20F001003062306A20F06E
:10139000040092E00020C4F242200021C0F8801432
:1013A000FFF782FD054600BF706A80077FF56CAFCE
:1013B000FFF77AFD401B0228F6D9C6E00027C4F2E9
:1013C000422700203866FFF76FFD022D05460BD13E
:1013D0003068800140F1BE80FFF766FD401B0228A7
:1013E0004FF00300F4D968E7306880017FF564AFFF
:1013F000FFF75AFD401B02284FF00300F4D95CE7C9
:1014000040F20800C2F20000006844F6D351C1F275
:101410006201A0FB0101480A019000BF00BF0198D2
:10142000411E002801913FF42FAF00BF0198411EDB
:10143000002801913FF428AF00BF0198411E002809
:1014400001913FF421AF00BF0198411E0028019196
:10145000E4D119E700210160FFF726FD054600BF32
:10146000306880077FF50DAFFFF71EFD401B022897
:101470004FF00300F4D920E7306A20F00100306219
:10148000306A20F004003062FFF70EFD054641F29D
:10149000883700BF306A800720D5FFF705FD401B65
:1014A000B8424FF00300F5D907E700BF306A40F0BB
:1014B00004003062306A40F001003062FFF7F4FC53
:1014C000054641F2883700BF306A800706D4FFF72F
:1014D000EBFC401BB842F7D937E000BFB8F1000F72
:1014E0007FF4D5AEF06920F08050F061CFE600BF08
:1014F000306820F480303060306820F48020306024
:10150000FFF7D2FC054600BF306880037FF59DAE33
:10151000FFF7CAFC401B64284FF00300F4D9CCE667
:10152000306840F480203060306840F480303060B3
:10153000FFF7BAFC054600BF306880033FF585AE73
:10154000FFF7B2FC401B6428F6D9032002B0BDE8C7
:10155000F08100BF206AB0F5803F05D1F16AA26832
:1015600021F00F011143F1627168626A21F4741174
:1015700011430843706001203866FFF795FC04466C
:10158000306880013FF598AEFFF78EFC001B022803
:101590004FF00300F4D990E6411E0020B0EB116F2C
:1015A0001CBF012070474EF21002CEF200025160C3
:1015B0004EF62351CEF20001F0230B70072190600C
:1015C00011607047704700007047000010B590F838
:1015D0003C20012A4FF0020238D080F83D200268FA
:1015E000D2F804E0D2F808C00C682EF07003234350
:1015F00040F2FF74C4F20004A242536012DD40F6D0
:101600000003C4F200039A4215D044F20003C4F26E
:1016100001039A420FD042F60043C4F201039A42FA
:1016200009D00DE0B2F1804F05D040F20043C4F282
:1016300000039A4204D149682CF080031943916059
:101640000121002280F83D1080F83C20104610BD9A
:10165000002804BF0120704710B5044690F83D00F3
:1016600028B9002084F83C00204600F093F80220BE
:1016700084F83D00206840F2FF720168C4F2000265
:1016800090421DDCB0F1804F26D040F20042C4F2FF
:101690000002904220D042F6FF32C4F20102904292
:1016A00024DD44F2FF32C4F2010290422EDC42F605
:1016B0000042C4F20102904234D044F200022DE014
:1016C00042F60042C4F20102904205D040F6000208
:1016D000C4F200029042DED1A26821F070011143F1
:1016E00042F6FF32C4F201029042DADCB0F1804FE0
:1016F00018D040F20042C4F20002904212D040F6EC
:101700000002C4F2000290420CD00FE044F6000246
:10171000C4F20102904205D044F20042C4F2010238
:10172000904203D1226921F440711143A36921F051
:1017300080011943D4F804C0E2680160A0F180413F
:10174000A1F596314FEAB1210729C262C0F828C03D
:1017500007D8012202FA01F111F0E10F1CBF616903
:10176000016301214161002084F8461084F83E1095
:1017700084F83F1084F8401084F8411084F8421037
:1017800084F8431084F8441084F8451084F83D1020
:1017900010BD000010B582B0006840F20041C4F2F4
:1017A0000001884214D0B0F1804F2BD141F21C00CF
:1017B000C4F202000168002241F0010101600068EA
:1017C000012100F00100019001981C201C2410E070
:1017D00041F21C00C4F202000168002241F0020143
:1017E00001600068002100F00200009000981D20B8
:1017F0001D24FFF7CBFB204602B0BDE81040FFF7E9
:10180000B1BB00BF02B010BD90F83D1001291CBF54
:1018100001207047022180F83D10006840F2FF72FD
:10182000C168C4F20002904241F00101C16013DDC1
:1018300040F60001C4F20001884216D044F20001D3
:10184000C4F20101884210D042F60041C4F2010105
:1018500088420AD010E000BFB0F1804F05D040F2BE
:101860000041C4F20001884206D1816801F00701FD
:10187000062904BF00207047016841F001010160A2
:10188000002070470146006841F21113C26822F03F
:101890000102C260026A1A4204D00122002081F8CB
:1018A0003D207047026A40F244431A42F5D1026873
:1018B00022F0010202600122002081F83D207047E1
:1018C00080B590F83C20012A4FF0020200F0BF8062
:1018D00080F83D20D0F800C04FF67772DCF8083071
:1018E00023EA0202CCF808200B683F2B1CDD5F2B9B
:1018F00020DD602B50D0B3F5005F6DD0702B40F031
:10190000A080D1E901E3C968DCF8082043EA0E03AE
:1019100022F47F4243EA01211143CCF80810DCF89D
:10192000081041F077018AE01F2B29DC63B3102BEC
:101930002AD086E0402B63D0502B40F08280D1F833
:1019400004E0C968DCF82030DCF8202022F0010235
:10195000CCF82020DCF8182022F0F00242EA011135
:1019600023F00A0242EA0E02CCF81810CCF820202C
:10197000DCF8081041F0570121F020015FE000BFC2
:10198000202B01D0302B5CD1DCF8081021F0700145
:10199000194341F0070152E0D1F804E0C968DCF8CE
:1019A000203023F01003CCF82030DCF81830DCF8BD
:1019B000202023F4704322F0A00243EA013142EADE
:1019C0000E12CCF81810CCF82020DCF8081041F0EA
:1019D000670121F0100132E0D1E901E3C968DCF8C8
:1019E000082043EA0E0322F47F4243EA0121114317
:1019F000CCF80810DCF8081041F480411FE000BF6B
:101A0000D1F804E0C968DCF82030DCF8202022F0AE
:101A10000102CCF82020DCF8182022F0F00242EA83
:101A2000011123F00A0242EA0E02CCF81810CCF899
:101A30002020DCF8081041F0470121F03001CCF8FB
:101A400008100121002280F83D1080F83C2010464B
:101A500080BD00007047000010B5016804460869A9
:101A6000800744BFC8685FEA807039D408694007BE
:101A700044BFC8685FEA40703ED40869000744BFAD
:101A8000C8685FEA007045D40869C00644BFC868EA
:101A90005FEAC0604AD40869C0071CBFC8685FEA33
:101AA000C07051D10869000644BFC8685FEA006091
:101AB00052D40869400644BFC8685FEA406053D406
:101AC0000869800646BFC8685FEA806010BD6FF095
:101AD000200220460A61BDE81040FFF775BD00BF37
:101AE0006FF002000861012020778869800743D0E9
:101AF0002046FFF7AFFF45E06FF0040008610220C9
:101B00002077886910F4407F40D02046FFF7A2FF7D
:101B100042E000BF6FF00800086104202077C86928
:101B200080073DD02046FFF795FF3FE06FF01000A3
:101B3000086108202077C86910F4407F3AD0204619
:101B4000FFF788FF3CE000BF6FF00100086120460E
:101B500000F03EF82168A5E76FF08000086120469C
:101B6000FFF730FD2168A4E76FF0400008612046D0
:101B700000F056F82168A3E7204600F025F820463B
:101B800000F024F82168002020776FE7204600F05D
:101B90001BF8204600F01AF82168002020776CE737
:101BA000204600F011F8204600F010F821680020CF
:101BB000207769E7204600F007F8204600F006F895
:101BC00021680020207766E770470000704700001A
:101BD00040F2F001C2F20001884208BF00F092BA60
:101BE00040F23811C2F20001884218BF704710B5A8
:101BF00040F27004C2F20004201D06A10B224FF037
:101C0000FF3300F07DF8207801302070BDE81040EF
:101C1000704700BF2D2D2D2D74696D657233000046
:101C200070470000002804BF0120704710B504462B
:101C300090F83D0028B9002084F83C00204600F0D0
:101C400021F8242084F83D002068C16821F4005167
:101C5000C160204600F018FD2068016921F4904120
:101C60000161416921F02A014161C16841F40051DB
:101C7000C16000202021206484F83D1084F83E10CB
:101C800010BD000070B586B040F60004C4F2010437
:101C9000006804F5405100268842049602D006B040
:101CA00070BD00BF41F21800C4F20200016802AD2D
:101CB00041F480410160016801F480410191019982
:101CC000016841F0040101600068294600F0040049
:101CD000019001984FF400700290022003900320BD
:101CE00005902046FEF7C6FF4FF48060CDE902065E
:101CF000204629460496FEF7BDFF06B070BD0000E1
:101D00002DE9F041044690F83D0020280ED10D4603
:101D100000294FF0010000F08E801646002A08BF0F
:101D2000BDE8F08194F83C00012803D10220BDE811
:101D3000F08100BF012084F83C00002020642120B5
:101D4000984684F83D00FFF7AFF8A684E684A168C2
:101D50000646B1F5805F03D12069002800F0A0801D
:101D60002F460025002084F83C00E08CE0B118F1FB
:101D700001001BD0B8F1000F60D120680BE000BF5C
:101D800035F8021B00276FF35F214160E18C0139B8
:101D9000E184E18C51B3016809066DD5002FEFD0C5
:101DA00017F8011BF1E700BF20681FE0206802E080
:101DB0000168090609D40168090606D40168090604
:101DC0005CBF01685FEA0161F2D51FB117F8011B22
:101DD00005E000BF35F8021B00276FF35F2141606B
:101DE000E18C0139E184E18C0029E4D101684906E4
:101DF0001DD4B8F1000F3FD018F101010ED10168D8
:101E0000490614D4016849065CBF01685FEA416174
:101E10000DD401684906F2D509E000BFFFF744F888
:101E2000811B2068414527D800684006F6D5202050
:101E300084F83D000020BDE8F08100BF206800BFAD
:101E40000168090606D4FFF72FF8811B2068414579
:101E5000F6D911E017B117F8011B04E035F8021BA1
:101E600000276FF35F214160E18C0139E184E18C4F
:101E70000029E5D1BAE700BFC16821F4D071C16083
:101E8000416921F001014161202084F83D0084F87E
:101E90003E00002084F83C000320BDE8F08100BF34
:101EA00000275FE7F0B58FB040F2A014C2F2000443
:101EB000207840F271070128C2F200070AD140F2EF
:101EC000CC00C2F2000008300021012201F09EFD8A
:101ED00051E000BF40F27400C2F200002EA12D229A
:101EE0004FF0FF33FFF70CFF207802280BD140F2B0
:101EF0007400C2F2000034A132224FF0FF33FFF72A
:101F0000FFFE00F079FA40F2CC06C2F20006D6E9F4
:101F10000232022B00D30AB1012A35D1581E0346E2
:101F2000B060756843F676610DF10904C0F60001F2
:101F300020460095FEF76AF92046FEF717FA82B2AE
:101F400040F27400C2F2000021464FF0FF33FFF769
:101F5000D7FEB06840B9F168012905D10520B0600D
:101F600000F03EF904E000BF002818BF00F038F987
:101F70000020306038704FF4FA70FEF763FC0020E8
:101F800038700FB0F0BD00BF012BCAD170680028B7
:101F9000C7D0002AC3D0C4E748616E646C655F4255
:101FA00061636B5F427574746F6E5F4576656E74C6
:101FB000202D202169735F7265636F726420202079
:101FC000202020202000000048616E646C655F4284
:101FD00061636B5F427574746F6E5F4576656E7496
:101FE000202D20656E7465722053746F705F706C65
:101FF000617920202020202020200000B0B540F270
:102000007400C2F2000027A128224FF0FF33FFF72F
:1020100077FE40F2A014C2F20004207801280BD110
:1020200040F27400C2F2000029A132224FF0FF33C7
:10203000FFF766FE00F064FA40F2CC05C2F200053C
:10204000A86828B12078022816D100F0D5F922E03E
:1020500040F2740043F65751C2F20000C0F600018E
:1020600032224FF0FF33FFF74BFE002028604FF481
:102070007A70FEF7E7FB0EE040F2740043F6AA51D7
:10208000C2F20000C0F6000132224FF0FF33FFF72A
:1020900037FE00F0A5F840F27100C2F20000002106
:1020A0000170B0BD48616E646C655F506C61795FB2
:1020B000427574746F6E5F4576656E74202D207363
:1020C00074745F706C617920202020200000000073
:1020D00048616E646C655F506C61795F42757474C1
:1020E0006F6E5F4576656E74202D20656E74657227
:1020F0002053746F705F7265636F726420202020BC
:1021000020200000F0B581B040F2CC05C2F20005FD
:10211000A86801F053FC298804463B299CBF013183
:102120002980688840F2A017C2084A2A9CBF013063
:102130006880C2F20007387840F271063C29C2F28A
:10214000000608BF012805D08C4208BF022813D022
:1021500001B0F0BD40F27400C2F200000DA11A22DD
:102160004FF0FF33FFF7CCFD298838780122327019
:102170008C4208BF0228EBD140F27400C2F200008A
:102180000BA11A224FF0FF33FFF7BAFD0320307086
:1021900001B0F0BD54696D65206F75742D207374A6
:1021A0006F70207265636F72642020202020000011
:1021B00054696D65206F75742D2073746F70207075
:1021C0006C6179202020202000000000FEE7000044
:1021D000FEE70000FEE700007047000070470000C7
:1021E0002DE9F04381B040F2740040F60008C2F2DD
:1021F00000003AA11E224FF0FF33C4F20108FFF79E
:102200007FFD40F2D400C2F2000004684046022183
:102210000122FEF743FE4FF4FA70FEF713FB601E37
:10222000C7B243F61C4443F63049042FC0F60004FD
:10223000C0F600091CD840F2740654F82710C2F208
:10224000000639F8175030460F224FF0FF33FFF7E2
:1022500057FD404629460022FEF720FE43F6724114
:10226000C0F60001304606224FF0FF33FFF748FD6D
:102270006420FEF7E7FA042F1CD840F2740654F8E5
:102280002710C2F2000639F8175030460F224FF0DF
:10229000FF33FFF735FD404629460122FEF7FEFDDC
:1022A00043F67941C0F60001304606224FF0FF3375
:1022B000FFF726FD40F2CC00C2F2000000210180B1
:1022C00040F2CE00C2F20000018040F2A010C2F243
:1022D00000000221017001B0BDE8F083456E746515
:1022E000722053746172745F706C6179202D20527A
:1022F0004543203D3120202020200000F0B581B052
:1023000040F27405C2F2000540F600042DA12846F3
:1023100015224FF0FF33C4F20104FFF7F1FC204611
:10232000022100220027FEF7B9FD2CA12846192220
:102330004FF0FF33FFF7E4FC40F2D000C2F20000A0
:102340000068C1B2042925D8000643F61C42811555
:10235000C0F60002515843F6304240F27406C015F0
:10236000C0F60002C2F20006155A30460F224FF0A6
:10237000FF33FFF7C5FC204629460022FEF78EFDFD
:1023800043F67241C0F60001304606224FF0FF339B
:10239000FFF7B6FC40F2CC00C2F20000078040F22A
:1023A000CE0040F2A011C2F20000C2F200010122F0
:1023B00007804FF47A700A7001B0BDE8F040FEF774
:1023C00041BA00BF456E7465722053746172745FC8
:1023D0007265636F72642020200000005374617284
:1023E000745F7265636F7264202D20524543203DF7
:1023F00020302020200000002DE9F04381B040F281
:10240000740040F60008C2F2000037A116224FF017
:10241000FF33C4F20108FFF773FC40F2D400C2F2AC
:102420000000006843F61C440138C7B243F6304947
:10243000042FC0F60004C0F600091CD840F2740650
:1024400054F82710C2F2000639F8175030460F2210
:102450004FF0FF33FFF754FC404629460022FEF7B9
:102460001DFD43F67241C0F60001304606224FF0D2
:10247000FF33FFF745FC0A20FEF7E4F9042F1CD8D0
:1024800040F2740654F82710C2F2000639F81750CB
:1024900030460F224FF0FF33FFF732FC404629460B
:1024A0000122FEF7FBFC43F67941C0F600013046FD
:1024B00006224FF0FF33FFF723FC40F2A010C2F2D8
:1024C00000000421017040F2CC0040F2CE02C2F2C2
:1024D00000000021C2F2000201800A20118001B038
:1024E000BDE8F043FEF7AEB9456E746572205374D3
:1024F0006F705F706C617920202020202000000028
:10250000F0B595B040F2D004C2F200042068C1B228
:10251000042929D8000643F61C428115C0F60002A2
:10252000515843F6304240F27406C015C0F600021E
:10253000C2F20006155A30460F224FF0FF33FFF764
:10254000DFFB40F60000C4F2010029460122FEF73D
:10255000A5FC43F67941C0F60001304606224FF053
:10256000FF33FFF7CDFB206800F004F9206840F24C
:10257000D4060130C2F2000640F2D80740F27405DA
:1025800030600528C2F2000704BF01203860C2F2A3
:10259000000525A1284609224FF0FF33FFF7B0FBC5
:1025A00020680130411F18BF014640F2A010216091
:1025B000C2F200000521017040F2CC00C2F200001E
:1025C0000021018040F2CE00C2F2000001800A200A
:1025D000FEF738F920460121012201F017FA0A20FE
:1025E000FEF730F938460321012201F00FFA0A20E4
:1025F000FEF728F930460021012201F007FA32687F
:1026000023683F6801AC0BA120460097FDF7FEFD53
:102610002046FDF7ABFE82B2284621464FF0FF333D
:10262000FFF76EFB15B0F0BD436865636B5F6C6FC1
:10263000670000000A207374745F706C6179203D3C
:102640002025642C2070696E5F636F6E74726F6CEE
:10265000203D25642C2066756C6C5F7265636F721B
:1026600064203D2025640000FEF724BC7047000074
:1026700040F2F000C2F20000FFF7EEB940F238106D
:10268000C2F20000FFF7E8B910B504460068D4E9CB
:1026900002C22369016921F4405111430161626959
:1026A00043EA0C01E3691143C268194349F20C6320
:1026B0009A431143C1604169A26921F440711143F9
:1026C00043F60002C4F201029042416102D0FEF7DB
:1026D00061FD01E0FEF772FDE26961681923B2F560
:1026E000004F03FB00F023D14900B0FBF1F048F2AA
:1026F0001F51C5F2EB11A0FB01235A094FF69C7341
:10270000C0F6FF7303F1805302FB0300322303EB97
:10271000C000A0FB01014FF4F87000EA111000EBBB
:102720000210C1F3421108442168886010BD00BF47
:102730008900B0FBF1F048F21F51C5F2EB11A0FB8C
:1027400001235A094FF69C73C0F6FF7302FB030086
:10275000322303EB0010A0FB0101F02000EA51102E
:1027600000EB0210C1F3431108442168886010BDDA
:10277000FEE70000F0B5A7B040F2B80540F2CC0784
:1027800004460428C2F20005C2F2000732D8DFE88E
:1027900004F0030B151F29003888042128602846FF
:1027A000012201F033F925E03988284640F8041F5A
:1027B0000521012201F02AF91CE000BF39882846D2
:1027C00040F8081F0621012201F020F912E000BFA5
:1027D0003988284640F80C1F0721012201F016F91C
:1027E00008E000BF3988284640F8101F0821012260
:1027F00001F00CF9D5E9003005F1080646CE3F8816
:102800008DE8070043F6D0410DF11505C0F6000133
:102810002846224604970396FDF7F8FC2846FDF764
:10282000A5FD82B240F27400C2F2000029464FF0CA
:10283000FF33FFF765FA27B0F0BD00002DE9F04F38
:1028400083B0002800F09A8040F6004BC4F2010BE0
:1028500058462021FEF71CFB002800F08F80002442
:1028600064200134FDF7B2FE58462021FEF710FB2C
:102870000028F5D1472CC0F0818000BF58462021A8
:10288000FEF706FB0028F9D04EF210074FF00008C3
:10289000CEF200074FF47A764FF00045002407E0AF
:1028A00025FA08F0844308F10108B8F1200F59D047
:1028B00058462021FEF7ECFA0028F9D1584620218D
:1028C000FEF7E6FA0028EBD100944FF0000904E08F
:1028D00058462021FEF7DCFAB0BB3868FEF7E4FA70
:1028E0007968BA684C1CA11A01913968C90301D4EE
:1028F000054605E0FEF7D8FAB9680546601A01906A
:10290000019809F101097043B0FBF4FA0BE000BF34
:102910000299401B7143B1FBF4F1A1EB0A0100FBEA
:1029200006106428D4D23868FEF7BEFA7968BA680F
:102930004C1CA11A02913968C903E9D5FEF7B4FA13
:10294000B968611A0291E3E7009CB9F10D0F4FF0ED
:102950000045A5D325FA08F0044308F10108B8F1B1
:10296000200FA5D140F2EC00C2F200000460642008
:10297000FDF72CFE002003B0BDE8F08F012003B06E
:10298000BDE8F08F40F2EC00C2F200000068704732
:1029900070B5042800F2C380DFE800F0044E202E5A
:1029A0003C0000BF40F2A015C2F20005287800F0FC
:1029B000FE01042974D140F23814C2F2000420460A
:1029C000FEF760FF40F27000C2F2000000260670C1
:1029D0002046FEF719FF2E7072E000BF40F274002F
:1029E000C2F2000054A10A224FF0FF33FFF788F92A
:1029F000BDE87040FFF756BA40F27400C2F2000022
:102A00004AA10A224FF0FF33FFF77AF9BDE8704080
:102A1000FFF7F4BA40F27400C2F2000040A10822AD
:102A20004FF0FF33FFF76CF96420FDF70BFFBDE8B3
:102A30007040FDF727BE00BF40F27400C2F20000F4
:102A400040A10C224FF0FF33FFF75AF940F2A014D7
:102A5000C2F20004207802280FD140F2740043F63D
:102A6000DD51C2F20000C0F6000132224FF0FF3308
:102A7000FFF746F9FFF7C0FC207801283AD140F271
:102A8000740043F61061C2F20000C0F60001322269
:102A90004FF0FF33FFF734F9FFF732FD39E000BFA5
:102AA000013801280CD840F23810C2F20000FEF7BD
:102AB000E9FE40F27000C2F200000021017070BD1A
:102AC00040F27000C2F200000078032818BF70BD09
:102AD00040F2740043F6CB61C2F20000C0F6000180
:102AE00017224FF0FF33FFF70BF9BDE87040FDF7F9
:102AF000C9BD00BF40F2740043F64361C2F200005A
:102B0000C0F6000132224FF0FF33FFF7F9F8FFF76C
:102B1000F5FB40F27100C2F200000021017070BDAF
:102B200049525F4556454E5400000000504C4159F3
:102B30005F4556454E5400004241434B5F45564564
:102B40004E5400005245434F52445F4556454E5443
:102B5000000000002DE9F04FADF23C4D0DF13C08B6
:102B60004FF6100908F108004FF47E71C0F6000915
:102B7000FDF74DFC40F27400C2F2000088A1112262
:102B80004FF0FF33FFF7BCF8D9F800B0CDF83CB0F8
:102B9000D9F804104FEA1B4A1FFA8BF050451091E8
:102BA00016D1FDF741FF40F2DC00C2F20000002127
:102BB00001600121C0E902916946FDF757FE28B383
:102BC000FDF7CCFE00200DF23C4DBDE8F08F00BFBC
:102BD000BBF5803FC0F09980002800F0968040F25D
:102BE0007400C2F2000073A112224FF0FF33FFF70E
:102BF00087F80BF1010080B20BF10201032801F00C
:102C0000030C13D20FA94A4627E000BF0220494611
:102C100000220023FDF7B2FE002800F0B580FDF78A
:102C20009DFE00200DF23C4DBDE8F08F4FF6FC728A
:102C300001EA020300260FA94A4600BF1468506843
:102C40009768D5680436C1E90040B0B2C1E90275A1
:102C50001032984201F11001F0D1BCF1000F0BD0FD
:102C60001068BCF1010F086006D05068BCF1020F7B
:102C700048601CBF90688860BBF5803F42D3BAF1C2
:102C8000010F98BF4FF0010AAAF1010008F10401F9
:102C900003280AF003001FD32AF003020B88043A2A
:102CA00003F1010331F8237001EB830107F1010700
:102CB00031F827603B4401EB870106F1010731F849
:102CC00027603B4401EB870106F101073B44ABEB76
:102CD000030B01EB8701E1D1A0B10A88012802F1C1
:102CE0000102ABEB020B0DD031F82230022803F1C8
:102CF0000103ABEB030B05D001EB820030F823009E
:102D0000C04383445FEA0B4030D0FDF78DFE40F2B4
:102D1000DC00C2F20000002101600121C0E9029143
:102D20006946FDF7A3FD30B9022049460022002381
:102D3000FDF724FE80B3FDF711FE6C461FFA8BF2FF
:102D400021A12046FDF762FA2046FDF70FFB82B273
:102D500040F27400C2F2000021464FF0FF33FEF74C
:102D6000CFFF00200DF23C4DBDE8F08FBDF83C00D8
:102D70000FA9013082B24846FDF736FD00200DF262
:102D80003C4DBDE8F08F00BFFDF7EEFD00200DF2D9
:102D90003C4DBDE8F08F00BFFDF7E6FDCDE700BF7D
:102DA000696E69745F666C6173685F6D656D6F7283
:102DB00079000000696E69745F666C6173685F6DAD
:102DC000656D6F72793100000A206E756D5F646108
:102DD0007461203D202564200000000090B0FEF7C3
:102DE00077F89620FDF72EFD06AC201D2421FDF777
:102DF0000EFB0220069001200A9010200B90002567
:102E000020460D95FEF7EEF920B1EFF3108072B673
:102E1000FEE700BF0F20CDE9000568460021CDE99F
:102E200002550495FEF718F920B1EFF3108072B641
:102E3000FEE700BF41F21800C4F20200016840F64C
:102E4000004841F0100101600168C4F2010801F07E
:102E5000100106910699016808F5806741F00401A8
:102E600001600168002201F00401069106990168E1
:102E70004FF4005441F00801016000684FF4005124
:102E800000F008000690069838464FF00009FEF75B
:102E900005F8A8F5806528464FF4FD7101224FF032
:102EA000010AFDF7FBFF404640F60B010122FDF74A
:102EB000F5FF40464FF4A0510022FDF7EFFF06AEAC
:102EC000CDE9064A022438463146CDF820900994CF
:102ED000FDF7D0FE4FF48570CDE9060A284631464D
:102EE000CDE908A4FDF7C6FEF020CDE9060A284684
:102EF0003146CDE90894FDF7BDFE40F60100CDE96D
:102F0000060A40463146CDE90894FDF7B3FE40F28B
:102F10000A4006901120CDE9070940463146099440
:102F2000FDF7A8FE4FF48050CDE9060A4046314631
:102F3000CDE90844FDF79EFE4FF4184000270690A7
:102F4000C1F2110728463146CDE9077AFDF792FE16
:102F50001020069007F58010CDE907044046314661
:102F6000FDF788FE202006A981E88102404631460F
:102F7000FDF780FE0A2000210022FEF707F80A2054
:102F8000FDF7F0FF172000210022FDF7FFFF1720BB
:102F9000FDF7E8FF282001210022FDF7F7FF282098
:102FA000FDF7E0FF40F27006C2F2000608F530516E
:102FB000304640F8041F4FF416510C22C0E90119A5
:102FC000C0E90399C0E90529C0F81C90FEF72AFE64
:102FD00020B1EFF3108072B6FEE700BF40F2F000C0
:102FE000C2F200004FF080414FF4FA5240F2F31366
:102FF00080E806028021CDF82490CDE90799CDE93B
:103000000099C0E903398161FEF722FB20B1EFF39B
:10301000108072B6FEE700BF4FF48050069040F279
:10302000F000C2F2000006A9FEF74AFC20B1EFF35F
:10303000108072B6FEE700BF40F2F000C2F200005E
:103040006946FEF7C3FA28B1EFF3108072B600BFED
:10305000FEE700BF40F238100021C2F200004EF639
:1030600060270991CDE90711CDE90011A8F5843257
:103070004FF4FA53C0E9021701618021C0E900232F
:103080008161FEF7E5FA28B1EFF3108072B600BF58
:10309000FEE700BF4FF48050069040F23810C2F2B5
:1030A000000006A9FEF70CFC20B1EFF3108072B609
:1030B000FEE700BF40F23810C2F200006946FEF79A
:1030C00085FA28B1EFF3108072B600BFFEE700BFAB
:1030D000351D1CA1284604224FF0FF33FEF710FED9
:1030E000FFF738FD6420FDF7ADFB00F033F84046F4
:1030F0004FF480610022FDF7D1FE6420FDF7A2FBB2
:1031000040464FF480610122FDF7C8FE40F2F00016
:10311000C2F20000FEF778FB0CA1284608224FF00F
:10312000FF33FEF7EDFD40F23810C2F20000FEF76B
:103130006BFB0320707000BFC0B2FFF729FC7078F2
:10314000FAE700BF496E697400000000496E6974B7
:103150002D2D2D002DE9F04FADF2444D11AC04F1B1
:10316000080B4FF6100758464FF47E71C0F6000763
:10317000FDF74DF93968261D11917A68080C1292F5
:1031800067D08BB24A1C032B02F0030C02D211AAA7
:103190003B4616E04FF6FC7302EA0305002411AA31
:1031A0003B4600BF19680434116059685160996842
:1031B0009160D9681033D160A1B2A94202F1100226
:1031C000F0D1BCF1000F0BD01968BCF1010F1160F8
:1031D00006D05968BCF1020F51601CBF996891601C
:1031E000012898BF0120411E3046026812F47F0F6B
:1031F00092B225D069B300EB820050F8042F12F48C
:103200007F0F92B21CD0012923D000EB820050F82E
:10321000042F12F47F0F92B212D0022919D000EBC2
:10322000820050F8042F12F47F0F92B208D000EB06
:10323000820004394A1C00F10400D6D109E000BF25
:103240003AB1011D40F2D4009200C2F20000FDF735
:10325000ACF80A20FDF7F6FA58464FF47E71FDF7F8
:10326000D6F8396811917A68080C12926FD08BB237
:103270004A1C032B02F0030C02D211AA3B4616E0B3
:103280004FF6FC7302EA0305002411AA3B4600BF77
:103290001968043411605968516099689160D9685F
:1032A0001033D160A1B2A94202F11002F0D1BCF1F9
:1032B000000F0BD01968BCF1010F116006D05968DE
:1032C000BCF1020F51601CBF99689160012898BF42
:1032D0000120411E3046026802F47F03B3F5803FAF
:1032E00092B22BD099B300EB820050F8042F02F475
:1032F0007F03B3F5803F92B220D0012927D000EBA5
:10330000820050F8042F02F47F03B3F5803F92B29D
:1033100014D002291BD000EB820050F8042F02F4D5
:103320007F03B3F5803F92B208D000EB82000439EE
:103330004A1C00F10400CED109E000BF3AB1011DE2
:1033400040F2D0009200C2F20000FDF72EF840F2E9
:10335000D40940F2D0080A20C2F20009C2F20008E3
:10336000FDF770FA58464FF47E71FDF750F8396852
:1033700040F2D80A11917868C2F2000A1290080C43
:103380006FD08BB24A1C032B02F0030C02D211AA9D
:103390003B4616E04FF6FC7302EA0305002411AA2F
:1033A0003B4600BF19680434116059685160996840
:1033B0009160D9681033D160A1B2A94202F1100224
:1033C000F0D1BCF1000F0BD01968BCF1010F1160F6
:1033D00006D05968BCF1020F51601CBF996891601A
:1033E000012898BF0120411E3046026802F47F0385
:1033F000B3F5403F92B22BD099B300EB820050F866
:10340000042F02F47F03B3F5403F92B220D001298C
:1034100027D000EB820050F8042F02F47F03B3F5AD
:10342000403F92B214D002291BD000EB820050F82A
:10343000042F02F47F03B3F5403F92B208D000EBB3
:10344000820004394A1C00F10400CED109E000BF1B
:103450003AB1011D40F2D8009200C2F20000FCF720
:10346000A4FF0A20FDF7EEF9D9F80020D8F80030C3
:10347000DAF800400DF109050FF20C5128460094CE
:10348000FCF7C4FE2846FCF771FF82B240F27400DC
:10349000C2F2000029464FF0FF33FEF731FC5846D8
:1034A0004FF47E71FCF7B3FF396811917A68080C0C
:1034B000129270D08BB24A1C032B02F0030C03D281
:1034C00011AA3B4617E000BF4FF6FC7302EA030562
:1034D000002411AA3B4600BF1968043411605968E2
:1034E000516099689160D9681033D160A1B2A94246
:1034F00002F11002F0D1BCF1000F0BD01968BCF141
:10350000010F116006D05968BCF1020F51601CBF59
:1035100099689160012898BF0120411E30460268D9
:1035200002F47F03B3F5802F92B22BD099B300EB56
:10353000820050F8042F02F47F03B3F5802F92B27B
:1035400020D0012927D000EB820050F8042F02F48C
:103550007F03B3F5802F92B214D002291BD000EB69
:10356000820050F8042F02F47F03B3F5802F92B24B
:1035700008D000EB820004394A1C00F10400CED1CF
:1035800009E000BF3AB1011D40F2B8009200C2F25A
:103590000000FCF70AFF0A20FDF754F958464FF4E3
:1035A0007E71FCF734FF396811917A68080C129229
:1035B0006FD08BB24A1C032B02F0030C02D211AA6B
:1035C0003B4616E04FF6FC7302EA0305002411AAFD
:1035D0003B4600BF1968043411605968516099680E
:1035E0009160D9681033D160A1B2A94202F11002F2
:1035F000F0D1BCF1000F0BD01968BCF1010F1160C4
:1036000006D05968BCF1020F51601CBF99689160E7
:10361000012898BF0120411E3046026802F47F0352
:10362000B3F5A02F92B22BD099B300EB820050F8E3
:10363000042F02F47F03B3F5A02F92B220D001290A
:1036400027D000EB820050F8042F02F47F03B3F57B
:10365000A02F92B214D002291BD000EB820050F8A8
:10366000042F02F47F03B3F5A02F92B208D000EB31
:10367000820004394A1C00F10400CED109E000BFE9
:103680003AB1011D40F2BC009200C2F20000FCF70A
:103690008CFE0A20FDF7D6F858464FF47E71FCF7F1
:1036A000B6FE396811917A68080C12926FD08BB20D
:1036B0004A1C032B02F0030C02D211AA3B4616E06F
:1036C0004FF6FC7302EA0305002411AA3B4600BF33
:1036D0001968043411605968516099689160D9681B
:1036E0001033D160A1B2A94202F11002F0D1BCF1B5
:1036F000000F0BD01968BCF1010F116006D059689A
:10370000BCF1020F51601CBF99689160012898BFFD
:103710000120411E3046026802F47F03B3F5C02F3A
:1037200092B22BD099B300EB820050F8042F02F430
:103730007F03B3F5C02F92B220D0012927D000EB30
:10374000820050F8042F02F47F03B3F5C02F92B229
:1037500014D002291BD000EB820050F8042F02F491
:103760007F03B3F5C02F92B208D000EB820004397A
:103770004A1C00F10400CED109E000BF3AB1011D9E
:1037800040F2C0009200C2F20000FCF70EFE0A20D8
:10379000FDF758F858464FF47E71FCF738FE39684B
:1037A00011917A68080C12926FD08BB24A1C032BCD
:1037B00002F0030C02D211AA3B4616E04FF6FC734E
:1037C00002EA0305002411AA3B4600BF196804342D
:1037D00011605968516099689160D9681033D1605F
:1037E000A1B2A94202F11002F0D1BCF1000F0BD03E
:1037F0001968BCF1010F116006D05968BCF1020FC5
:1038000051601CBF99689160012898BF0120411E3A
:103810003046026802F47F03B3F5E02F92B22BD05A
:1038200099B300EB820050F8042F02F47F03B3F544
:10383000E02F92B220D0012927D000EB820050F86F
:10384000042F02F47F03B3F5E02F92B214D00229C3
:103850001BD000EB820050F8042F02F47F03B3F575
:10386000E02F92B208D000EB820004394A1C00F12C
:103870000400CED109E000BF3AB1011D40F2C400FE
:103880009200C2F20000FCF790FD0A20FCF7DAFF7C
:1038900058464FF47E71FCF7BAFD396811917A6889
:1038A000080C12925DD08BB24A1C032B02F003016C
:1038B00002D211AA15E000BF4FF6FC731340002599
:1038C00011AA00BF3C68043514607C685460BC6871
:1038D0009460FC681037D460ACB29C4202F11002D4
:1038E000F0D149B13B680129136005D07B680229FA
:1038F00053601CBFB9689160012898BF012001384E
:10390000316801F47F02B2F5002F8AB22ED040B3A5
:1039100006EB82010E1D316801F47F02B2F5002F23
:103920008AB223D001281CD006EB82010E1D31681B
:1039300001F47F02B2F5002F8AB217D0022810D00E
:1039400006EB82010E1D316801F47F02B2F5002FF3
:103950008AB20BD006EB82010438421C01F1040646
:10396000CED10DF2444DBDE8F08F00BF002AF8D053
:1039700040F2C800311D9200C2F20000FCF715FDB4
:103980000DF2444DBDE8F08F0A207374745F706CC3
:103990006179203D2025642C2070696E5F636F6E15
:1039A00074726F6C203D25642C2066756C6C5F72A0
:1039B00065636F7264203D2025640000013804288F
:1039C00084BF00207047DFE800F003090F151B00DB
:1039D00040F2B800C2F200000068704740F2B80040
:1039E000C2F200004068704740F2B800C2F2000026
:1039F0008068704740F2B800C2F20000C0687047AB
:103A000040F2B800C2F20000006970472DE9F04FA3
:103A1000ADF2044D0DF1040A0F4681460AF108008B
:103A20004FF47E711546FCF7F2FC002D00F0DD80AE
:103A30004FF61006C0F6000634680AF1040C019433
:103A400070685FEA144802906CD004F1010B1FFA11
:103A50008BF1A01C01AA00F0030E03293346114686
:103A600019D34FF6FC7108403346002601A900BF68
:103A70001A6804360A605A684A609A688A60DA6886
:103A80001033CA60B2B2824201F11001F0D14FF698
:103A90001006C0F60006BEF1000F0BD01868BEF18C
:103AA000010F086006D05868BEF1020F48601CBFC5
:103AB0009868886040461FFA84FEB8F1010F98BFED
:103AC0000120431E62461068C0F30741B94281B22B
:103AD0002CD0002B5CD002EB8100021D1068C0F3DB
:103AE0000741B94281B221D0012B51D002EB8100B4
:103AF000021D1068C0F30741B94281B216D0022BF3
:103B000046D002EB8100021D1068C0F30741B942A4
:103B100081B20BD002EB8100043B591C00F104027E
:103B2000D1D135E04FF0000832E000BFA94205D105
:103B3000101DAA004946FCF738FC50E0C8430EEBC4
:103B40000004A0B201AB03EB8000801AB3464FF62D
:103B5000FF76C1EBA003012BB04418DB02EB81011F
:103B6000002000BF40F00106B6B2B3420DDD40F0C8
:103B70000206B6B2B34208DD40F00306B6B2B34265
:103B800003DD043086B2B342ECDC486810605E4668
:103B90004FF6FC70C0F2030000EA840045EA0741DA
:103BA0004CF8001029465044012D98BF01210830DF
:103BB0008A004946FCF7F9FB2819013081B2FF2938
:103BC00006D94FF0FF300DF2044DBDE8F08F00BF75
:103BD00041EA084101F5803100F1010B01911FFA22
:103BE0008BF201A93046FCF7FFFD00200DF2044DD9
:103BF000BDE8F08F30313233343536373839414211
:103C0000434445464030580030313233343536373E
:103C1000383961626364656640307800803C000832
:103C2000903C0008A03C0008B03C0008C03C0008E4
:103C3000080010002000400080000000000000008C
:103C40000000010203040607080900000000010249
:103C5000030402030405060708090A0B0C0D0E0FE6
:103C600010100102030405060708090A0B0C0D0ECB
:103C70000F10302020202020003120202020200084
:103C8000436F6E74726F6C202D204D30203D2000EC
:103C9000436F6E74726F6C202D204D31203D2000DB
:103CA000436F6E74726F6C202D204D32203D2000CA
:103CB000436F6E74726F6C202D204D33203D2000B9
:103CC000436F6E74726F6C202D204D34203D2000A8
:103CD0000A2070696E5F636F6E74726F6C5F742020
:103CE0003D2025642C2074696D655F7265636F7279
:103CF000645F31203D25642C2074696D655F7265B9
:103D0000636F72645F32203D25642C2074696D6599
:103D10005F7265636F72645F33203D25642C20748D
:103D2000696D655F7265636F72645F34203D256401
:103D30002C2074696D655F7265636F72645F3520F6
:103D40003D2564202C74696D655F64656661756CE2
:103D500074203D2025640048616E646C655F506C82
:103D600061795F427574746F6E5F4576656E74201D
:103D70002D207374745F706C6179203D2030202099
:103D800020202020202020202000696E746572727F
:103D90007570742D6261636B5F7072657373203D23
:103DA0002031202020202020200048616E646C6596
:103DB0005F506C61795F427574746F6E5F457665B4
:103DC0006E74202D20656E74657220537461727458
:103DD0005F706C6179202020202020200048616ED7
:103DE000646C655F5265636F72645F427574746F73
:103DF0006E5F4576656E74202D20656E7465722049
:103E000073746F7020706C61792020202020200056
:103E100048616E646C655F5265636F72645F427582
:103E200074746F6E5F4576656E74202D20656E74B8
:103E300065722073746F70207265636F72642020E6
:103E400020200048616E646C655F5265636F726428
:103E50005F427574746F6E5F4576656E74202D20B9
:103E6000656E746572207374617274207265636F1D
:103E70007264202020000A2066756C6C5F72656396
:103E80006F7264203D2025642C207374745F706C05
:103E90006179203D25642C2070696E5F636F6E74BC
:103EA000726F6C203D202564000A206576656E7473
:103EB0005F696E746572757074203D2025642C20D6
:103EC000737461747573203D25640054494D452D0C
:103ED0004F55542D656E746572207374616E646203
:103EE00079000000083F00080000002010000000DA
:103EF0005C010008183F000810000020980700002F
:103F0000780100080000000001000000100000001F
:083F10000024F4000000000091
:0400000508000121CD
:00000001FF
